:10000000C0280020AD2900009B9000009929000025
:10001000992900009929000099290000000000009A
:10002000000000000000000000000000252B000080
:100030009929000000000000BD2A00009929000055
:10004000112D0000112D0000112D0000112D0000B8
:10005000112D0000112D0000112D0000112D0000A8
:10006000112D0000112D0000112D0000112D000098
:10007000112D0000112D0000112D0000112D000088
:10008000112D0000112D0000112D0000112D000078
:10009000112D0000112D0000112D0000112D000068
:1000A000112D0000112D0000112D0000112D000058
:1000B000112D0000112D0000112D0000112D000048
:1000C000112D0000112D0000112D0000112D000038
:1000D000112D0000112D0000112D0000112D000028
:1000E000112D0000112D0000112D0000112D000018
:1000F000112D0000112D0000112D0000112D000008
:1001000053B94AB9002908BF00281CBF4FF0FF317E
:100110004FF0FF3000F00CB8ADF1080C6DE904CEE3
:1001200000F010F8DDF804E0DDE9022304B07047C8
:10013000704700BF034613F8012B002AFBD1181AA1
:10014000013870472DE9F04786468C460846089EE0
:10015000154674461946002B40F0C2808542B2FA1B
:1001600082F245D94AB1C2F1200300FA02FC2EFA0C
:1001700003F3954043EA0C0C94404FEA154EA8B2A5
:10018000BCFBFEF8230C0EFB18CC08FB00F943EA7D
:100190000C43994528D9EB1808F1FF3704D299454B
:1001A00002D9A8F102072B44A3EB0903A4B2B3FBC5
:1001B000FEFC0EFB1C330CFB00F044EA0344A0429F
:1001C00014D92C190CF1FF3304D2A04202D9ACF19E
:1001D00002032C44241A43EA07401EB1D4400023F2
:1001E00034607360BDE8F0874746DDE76346F1E7BA
:1001F00092BB431B01214FEA154EAFB2B3FBFEFC8D
:10020000200C0EFB1C330CFB07F840EA0343984517
:1002100062D9EB180CF1FF3004D2984502D9ACF149
:1002200002002B44A3EB0803A4B2B3FBFEFC0EFBBD
:100230001C330CFB07F744EA0344A7424ED92C19A0
:100240000CF1FF3304D2A74202D9ACF102032C44D3
:10025000E41B43EA0040C0E7C2F1200320FA03F1A7
:10026000954090402EFA03F303434FEA154EAFB288
:10027000B1FBFEFC0EFB1C10190C0CFB07F841EA4D
:100280000041884504FA02F422D969180CF1FF30C4
:1002900004D2884502D9ACF102002944A1EB08013F
:1002A0009BB2B1FBFEFC0EFB1C110CFB07F743EAF3
:1002B00001439F420ED9EB180CF1FF3104D29F424B
:1002C00002D9ACF102012B44DB1B41EA004192E769
:1002D0006046E3E76146F7E76046A3E76346B7E7B2
:1002E000834206D916B9002108467BE7C6E900E03B
:1002F000F9E7B3FA83F78FB9834201D3724508D87F
:10030000BEEB020460EB030301209C461EB90021F2
:1003100068E73846FAE7C6E9004CF8E7C7F1200C71
:10032000BB4022FA0CF41C432EFA0CF120FA0CF319
:10033000B84001434FEA14490EFA07F5B3FBF9F848
:100340001FFA84FE09FB18300B0C08FB0EFA43EA77
:1003500000439A4502FA07F240D9E31808F1FF304A
:1003600004D29A4502D9A8F102002344A3EB0A0360
:1003700089B2B3FBF9F809FB183308FB0EFE41EA1A
:1003800003418E452CD9611808F1FF3304D28E4504
:1003900002D9A8F10203214443EA0040A0FB0298DD
:1003A000A1EB0E014145CE46434602D306D14D4551
:1003B00004D2B9EB020E68EB04030138002EA6D07C
:1003C000B5EB0E0261EB030101FA0CFC22FA07F314
:1003D0004CEA0303F940C6E9003198E74046C5E717
:1003E0004346D9E700F01F02400908D0012809D18F
:1003F000054BD3F81005D04000F0010070474FF0D6
:10040000A043F6E70023F4E70003005008B5021EFE
:1004100018BF01220921024807F01AFE08BD00BFDB
:10042000E4B2000008B5064A064B9A4206D01920ED
:10043000FFF7D8FF003818BF012008BD3920F7E7C3
:10044000E4B20000D0B200002DE9F04784B002AF62
:100450006E480AF044FB002834D06C480AF03FFB99
:10046000824678B34FF4B011694807F0BAFD0446EC
:1004700080BB4FF48031674807F0B3FD0446002885
:1004800033D1654C654A0321204608F004FD644AD7
:100490000321204608F0FFFC4FF001035B49614A4D
:1004A000914201D04FF00003DBB2092200925E4A74
:1004B0000321594808F004FD4FF00009C8464FF0E9
:1004C000FF3663E0594A0121534808F0E4FC6FF01D
:1004D000120405E00346564A01214F4808F0E5FCA6
:1004E00020460837BD46BDE8F0870346514A012142
:1004F000494808F0DAFCF3E7B9F1000F03D0FFF741
:1005000091FF044648E023464B4A0221424808F046
:10051000CCFCD146F3E7494843E06FF0004C4CE097
:1005200000233B7002237B70002A4ED1BCF10D0FDB
:100530005EDD0E2342B10320387100207871B8715E
:100540000120F871786808616FF300056FF34105C9
:100550006FF382056FF3C505032161F38815C3F3BB
:100560000A0363F353256FF31F55002329462A48D6
:1005700001F024F9B5462646002C3CD00120FFF7B7
:1005800045FF40F2676000210AF009FD19211F486C
:1005900007F03EFD041EAFDBB442EDD0002CBAD014
:1005A00027486E4600233B7102237B7188B002A965
:1005B00011F11002B1D04FF00E0C002AB0D0BCF1F6
:1005C000040FADDD1F4B4B61AAE7BCF1080F00DD46
:1005D000886101F11C03002007E000F1080EBE4411
:1005E0001EF808EC03F801EB01300128F5D99DE76E
:1005F0006FF01B039EE788F001084046FFF706FFF7
:1006000041F69A1000210AF0CAFCBFE7E4B20000EC
:1006100054B700004CB700003CB5000080B60000A5
:10062000A0B60000D0B20000E4B6000014B600008E
:100630003CB600005CB6000000B7000000B6000049
:10064000E8B500003CB700002DE9F04F91B00592ED
:100650000293134602F004020092C3F3C20210F0A8
:100660000303019340F02B8280468A460132041D29
:1006700000284FD0B8F1000F05D0A4EB08030433D5
:10068000534500F21F82029B5D1E019B049306935B
:10069000039300264FF0FF3B0427B946B8F1000F43
:1006A00001D0029B2360531E0793002A40F35D8113
:1006B000059B13F0020228D00120A4EB08018B084F
:1006C0001AB1B1F5007F80F0038203990F2900F27F
:1006D0000282B8F1000F00F06081DBB201F140024C
:1006E0006A4402F8103C02F820BC002800F0518156
:1006F00063F07F0301F140026A4402F8103C049B5E
:1007000001330493039B0133039304340022CC464A
:1007100040463DE001F0070A5444CAF1080AA9E73F
:10072000002634E0002632E0002630E00827BC46F0
:100730002DE025292BD10BF1010B01260427BC4606
:1007400025E04729EED82A2914D32A39C9B24FF017
:10075000010E0EFA01F14FF6DA7E11EA0E0F16D1F4
:1007600011F0625F40F0C08011F0010F40F08C800A
:1007700000260CE0252903D10BF1FF3B002606E003
:1007800001D9002603E0202901D02329CCD11D4620
:100790006B1C6978002900F01981002EC9D07A29D4
:1007A000BED84C29CDD34C392E2961D80FF2040E76
:1007B0005EF821F08F07000071080000710800004A
:1007C0007108000071080000710800007108000045
:1007D0007108000071080000710800007108000035
:1007E0007108000081080000710800007108000015
:1007F0007108000071080000710800007108000015
:100800007108000071080000E9080000710800008C
:100810008108000081080000E9080000E9080000E4
:10082000E90800008F070000810800002D07000084
:10083000710800008F0700007108000045090000E2
:1008400081080000450900007108000071080000DF
:100850004D0900007B0800008108000071080000BD
:100860007108000081080000710800007508000090
:1008700000268CE70427BC4689E70427BC4686E7A8
:1008800029786C2924D000263C44013CB4FBF7F4C1
:1008900007FB04F420B1211A6144514500F215818F
:1008A000002A58D1BCF1040F00F08880BCF1080F79
:1008B00040F014811A99073121F0070101F1080570
:1008C0001A95D1E9008908B1C4E9008908345EE7C6
:1008D00013F8021C6C2903D000260427BC46D3E77A
:1008E00000260827BC46CFE729784C291AD01A9948
:1008F000073121F0070101F108061A96D1E90067D6
:10090000073424F0070440B1211A0831514513D8A7
:1009100029784C2913D0C4E9006708340026082739
:10092000BC4634E71A99073121F0070101F10806A6
:100930001A96D1E90067E3E76FF01B00BCE0C4E959
:100940000067EAE700260427BC469DE732460026FA
:100950000427BC4698E7E14680461A9A111D1A9171
:1009600012680292079A1D4698E6624B029A9A42D2
:1009700004D3614B9A420AD3002300E00023002BEA
:100980007FF496AE059B03F00202002095E601235A
:10099000F5E7069B01330693B4E610B10AF1010AAC
:1009A000B0E6009B13B10AF1020AABE60298FFF72A
:1009B000C1FB0AEB000303F1020AA3E61A990D1D1D
:1009C0001A95096800B121600434E0E68046231AD4
:1009D000B3F5806F80F0858090B1002202609B08A3
:1009E0000370009B83B1069BC370049B88F80230A0
:1009F0001BBB019DDDF80C90DDF810B0029F3DE0BF
:100A00005344A3F1080057E0069B4370EDE7013320
:100A10009842EED903F140026A4412F8101C12F910
:100A2000102C002AF3DA01F07F01A4EB0802013256
:100A3000524559D804F8011BE9E7019B0398E7E701
:100A4000009B43B305F140036B4413F8203C04F8CA
:100A5000013B019EA4EB080333440133534546D8C0
:100A600005F140036B4413F8103C04F8013B324697
:100A7000394620460AF04BFB34440135A94519D9C3
:100A8000BBF1000FDCD005F140036B4413F9103CBF
:100A9000002BD5DAF1E705F140036B4413F8103C65
:100AA00058F82370002248F823203846FFF742FB0D
:100AB000461CCFE7A4EB080011B0BDE8F08F6FF043
:100AC0000D00F9E76FF01B00F6E76FF01B00F3E78E
:100AD0006FF01500F0E76FF01500EDE76FF015000F
:100AE000EAE76FF01500E7E76FF01B00E4E76FF04F
:100AF0001B00E1E744B20000FCC600002DE9F04F06
:100B000097B000AF8346BA613B61D7F88030C3F33A
:100B1000C0033B62F96011B907F0CAFBF8609BF8AB
:100B20000260B14636B1D7F8803013F0010F0DD115
:100B3000002300E000239BF803207A6242B1D7F83B
:100B4000802012F0020F22D1002202E00123F2E7FE
:100B5000002202B9EBB19BF80050AA00BA60DBF8A2
:100B600004207A610BEB8505BA69F2B1002B40F0E5
:100B70000481B9F1000F00F00F81D7F8803013F035
:100B8000040F40F00D810020F8610646F9E00122D3
:100B9000DFE7BB691BB13A69F96858469847FC68BA
:100BA00020465C37BD46BDE8F08FFC68E3B94D4494
:100BB00000233B6123E00444013501364E451AD23F
:100BC0002A7800235BF822201946B86907F085FBD4
:100BD000BAF1000FEFD0D7F888309845EBD22AF859
:100BE000180008F10108E6E70026C7F81C80B046A7
:100BF000D7F884A0E2E7C7F81080D7F81C80D7F8B0
:100C0000803003F00503FB604FF0000AA146C7F8EF
:100C10001CB09CE000253B6A7BB9002D79D0D7F849
:100C2000803013F0010F79D1FB68002B6FD10223C4
:100C3000A9EB030988E00125EDE75946786907F03B
:100C400092FB0028E9D06C46002387F82C30022361
:100C500087F82D308AB0694611F1100237D012257D
:100C60001AB1042D01DDB34B4B61002387F8283006
:100C7000022387F829306ABB112D45DD122362B1AA
:100C8000042087F82C00002087F82D0087F82E001C
:100C9000012087F82F00F86A08616FF300086FF3EE
:100CA00041086FF382086FF3C508022161F38818C9
:100CB000C3F30A0363F353286FF31F58002341461D
:100CC0009D4800F07BFDA546A9F102093CE06FF0CC
:100CD0000045C5E72B46082D01DD786988610C2B9E
:100CE00001DDC1F81CB001F12003002009E000F192
:100CF000300C07F1280EF4441CF830CC03F801CB7B
:100D000001300128F3D9B7E76FF01B03B7E70123E0
:100D10008EE7D7F8803013F0020F15D0002322465B
:100D20001946B86907F0D9FAD7F8843053B13B694E
:100D3000D7F88820934205D2D7F8842022F81300F0
:100D400001333B61013881440AF1010A35467B6A6F
:100D50009A4510D22E4616F802BB6B78FA6952F803
:100D60002340764B9C42FFF455AF754B9C42FFF4F9
:100D700062AF00254FE74C4612E707F1440000231D
:100D8000FB6118B14A4629460AF0C1F94D444FF0BB
:100D90000008C7F804901EE00020F8610646F0E75E
:100DA000FE6107F134000026EBE700253B6A33BB08
:100DB000002D3BD0D7F8803013F0010F26D0731CE4
:100DC00006F1300207F12801561806F8149CDEB22D
:100DD00008F1010825467B6A98454AD22C4614F84A
:100DE00002AB95F801905BF82930544A9342DCD36A
:100DF000534A934201D30025D8E70125D6E751464F
:100E0000786907F0B0FA0028D2D0E1E7D7F880304F
:100E100013F0040FDCD0FA69531C303207F12801BB
:100E20000A4402F8249CDBB2FB61D1E7D7F880309A
:100E300013F0020F09D0731C06F1300207F12801EC
:100E4000561806F8149CDEB2C2E7F869431C00F19C
:100E5000300107F128028A1802F824AC0246023257
:100E6000D2B2FA6107F1580252FA83F303F8249CD4
:100E7000AEE7D7F804909BF8003087F854309BF821
:100E80000130334487F85530D7F8803013F0020F23
:100E90000ED1FB69C3F3470387F85730D7F880308A
:100EA00013F0010F06D113F0040F3ED1002302E02E
:100EB0000023F1E7002387F85630DBF800003863A1
:100EC000786DCBF80000D7F810804246B9685846D4
:100ED000D7F818A0D047041EFFF662AE386BCBF8E7
:100EE0000000C7F810804246F96907F13400D04786
:100EF00000285EDB04EB0008B96849447B6A01EB1B
:100F00004301D7F810904A46FB68591A2846D04743
:100F1000041EFFF645AE08EB04054FF00008C7F8C5
:100F200024B0B3465446CA4621E0FB69C3E74FF0FC
:100F3000000909E06CB700002CB5000044B20000C5
:100F4000FCC600004FF000095246012107F12C00B9
:100F5000A04700282FDB05444B4632465146204629
:100F600007F0BBF9002828DB054408F10108D84543
:100F700018D208F1300307F12802134413F8143C87
:100F800087F82C307A6A52F82360D7F88430002B27
:100F9000CDD0D7F888309845D4D2D7F8843033F8FC
:100FA0001890D1E73A6900210846BB6998472C465A
:100FB000F6E50446F4E50446F2E50446F0E500BF34
:100FC000014B1860704700BF6005002080B50546E2
:100FD0000E461746984605F0FFFF03460AF028F92B
:100FE0000446DFF8189049F800304246394630464A
:100FF000A84754F8090001F047FD00BF08000000B1
:101000002DE9F04383B0044608461546238B13F0C0
:10101000080F05D103F0070600230093019354E065
:10102000012909D043F02003238385F31188BFF3FE
:101030006F8F03B0BDE8F08343F010032383F4E720
:10104000204607F0F1FC42E0D4F814904A46694685
:10105000204607F002FD4FF00008238B03F007073E
:10106000B74269D0A268002A66D0012243F0080383
:10107000238385F31188BFF36F8F002A64D1009B0F
:101080002BB14B463A466946204607F05FFDB8F162
:10109000000F02D034492046C047EFF311852023CA
:1010A00083F31288BFF36F8F238B23F0080323830E
:1010B000238B13F0100F4DD023F010032383012056
:1010C000268B06F007060028AFD00228B8D00028EB
:1010D000ABD0013804282BD801A353F820F000BF6F
:1010E0004910000031110000F51000000911000046
:1010F0001D1100002369D3F800800621204607F067
:1011000069FC4FF00009A8E72369D3F804800421A3
:10111000204607F05FFC4FF000099EE72369D3F8F3
:1011200008800521204607F055FC4FF0000994E7A0
:101130004FF00008C14690E7009A0AB1002295E7F7
:10114000B8F1000F92D1B3E74A463946204607F07E
:1011500049FC94E713F0200F04D023F020032383ED
:101160000220ADE70020ABE77B8B000038B50546D9
:101170000B4C00E010340B4B9C420FD263685B7940
:10118000002BF7D02946204607F0DDFD0028F1D0DE
:1011900023681B68294620469847EBE738BD00BF07
:1011A0007CB500008CB5000070B506460D46084CB5
:1011B00004E02A463146204698471034054B9C42AD
:1011C00004D223689B69002BF3D1F6E770BD00BF02
:1011D0007CB500008CB500002DE9F04107460546BE
:1011E0000AE007EA0807144B03EB06135B680422C6
:1011F0001968204600F0B4FAD5B195FAA5F6B6FA0A
:1012000086F60D4C04EB06140123B3406FEA030885
:1012100025EA0305237B002BEED03301064AD35881
:101220001B69002BDDD0204698470028E4D1D8E781
:101230003846BDE8F08100BF7CB500002DE9F041E3
:1012400080460F46204BBFF35B8F53E8005F6A1C5C
:1012500043E800210029F8D1BFF35B8F002D2FD187
:101260001A4C002607E0636804221968204600F043
:1012700077FA01361034164B9C4213D2237B002B95
:10128000F7D02368DB680BB12046984723681B69B9
:10129000002BE8D0204698470028E4D00123B34033
:1012A0001D43E6E7B8F1000F0BD055B12846FFF714
:1012B00093FF0546002FF8D00A2007F04AFDF4E717
:1012C00000252846BDE8F081EC0E00207CB500002A
:1012D0008CB5000008B5064B186018B1054B1B68AB
:1012E000092B00DC08BD044805F0D0F9FAE700BF7F
:1012F000E00E0020E80E00208407002008B5024818
:1013000005F0C4F908BD00BF8407002030B589B0DE
:1013100000220F490F4809F0DBFE0F4D0022002389
:10132000CDE90623002404940E2303930294019430
:1013300000940A4B4FF440720949284609F003FD16
:101340000849284605F050FA204609B030BD00BFD4
:10135000FD120000500C002098070020B916000074
:10136000C017002024B80000014B53F8200070473C
:1013700040B8000048B108B5054A1060054B196037
:10138000084600F00FFD002008BD6FF01500704703
:1013900064050020DC0E002008B5054B1B781BB14E
:1013A000034B01221A7008BD024805F06FF9F7E7F8
:1013B0007C1700208407002008B5104BBFF35B8F1B
:1013C00053E8001F013143E80012002AF8D1BFF3AF
:1013D0005B8F30B90A4809F087FE0A4805F056F9D4
:1013E00008BD094BBFF35B8F53E8001F013943E889
:1013F0000012002AF8D1BFF35B8FEBE7E40E002068
:10140000500C002084070020E80E0020064B00202E
:101410000146BFF35B8F53E8000F43E80012002A38
:10142000F9D1BFF35B8F7047E40E002038B5FFF7AA
:10143000EDFF0546094C00E01034094B9C420BD2ED
:1014400063685B79002BF7D023685B68002BF3D0CF
:10145000294620469847EFE738BD00BF7CB500001D
:101460008CB50000034B18680028D4BF0020012071
:10147000704700BFE40E002010B5044C044920461C
:1014800007F003F9034B1C6010BD00BFF8060020F5
:101490002CB80000D80E002008B50023064A1370AF
:1014A000064A1360064A13604FF400410548FFF7EF
:1014B00061FFFFF7E1FF08BD7D170020E40E00206B
:1014C000E80E00204B8D000008B50146014807F0EA
:1014D00056FC08BDF806002008B5024807F0B8F928
:1014E00008BD00BFF806002008B50146024B186889
:1014F00007F04BFC08BD00BFD80E002008B502481D
:1015000007F047FC08BD00BFF806002010B582B008
:1015100000220023CDE90023284B187808B902B037
:1015200010BD684607F04DFC044688B1244BBFF35C
:101530005B8F53E8001F013943E80012002AF8D1FD
:10154000BFF35B8F2046FFF711FE2046FFF7CCFF6D
:10155000FFF788FF58B91B4A1368516813F57A736F
:1015600041F1000113605160FFF7C8FFD7E709F0B0
:10157000A0FD4A0142EAD06243011B1A62EB01025C
:10158000920042EA93729B001B1842EB0102D200C8
:1015900042EA5372C3F3103343EA4243D20B094881
:1015A000016840685B1A62EB000240F2E9318B424D
:1015B00072F10002CFD3FFF739FFCCE77C17002090
:1015C000E80E0020480C00200F4B1B7803B1704739
:1015D00010B500210120FFF731FE0C4C00E0103463
:1015E0000B4B9C4208D263685B79002BF7D02368D1
:1015F0009B6820469847F2E7FFF788FF0028FBD159
:10160000014B01221A7010BD7D1700207CB500002F
:101610008CB5000010B582B01A4BBFF35B8F53E856
:10162000002F511C43E800100028F8D1BFF35B8F56
:10163000154B1B7863B9154B1B68B3B1BAB1092AB6
:1016400013D1134809F050FD124805F01FF80CE0C3
:10165000EFF31184202383F31288BFF36F8FFFF71A
:1016600055FF84F31188BFF36F8F02B010BD0022C5
:101670000023CDE900234FF400420023044805F085
:10168000CFFFF2E7E80E00207D170020E00E0020DB
:10169000500C00208407002010B50446044B1B6842
:1016A0009847A0602146034807F08FFB10BD00BF9C
:1016B00064050020F80600202DE9F04100210846CD
:1016C000FFF7BCFD804650B140F26766002709F085
:1016D000AFFD154B1858FFF7FDFD002515E04FF045
:1016E000FF364FF0FF37F2E74046FFF775FD8046C3
:1016F00070B94FF0FF364FF0FF3709E02C46324605
:101700003B460A4805F006F82546B8F1000FEBD134
:10171000FFF7FCFE04460028F6D1002DEED0002194
:101720000846FFF741FDEAE70800000084070020B3
:101730000248034BC01AC008704700BF7CB50000C8
:1017400024B5000010B50C46FFF7F2FFA04203D904
:10175000024B53F8340010BD0020FCE724B5000014
:1017600008B5094BC31A1B110133D0F804C08CF81B
:10177000043043689A7143681960436801225A71C2
:10178000FFF70AFE08BD00BF7CB5000000B589B0B8
:10179000059206930023079362B1074A0C9B0293BC
:1017A0000B9B01930A9B009305ABFFF7A7F909B0C8
:1017B0005DF804FB0022F1E7DB8D00002DE9F04F1E
:1017C0008BB004AF05461E468846C1F34A24002C60
:1017D00000F0898091460022FA603A617A61042320
:1017E0000293FB1801930A23009307F10C0321468F
:1017F0004846FFF783F9B0F5006F58D3D9F80410C5
:101800006D4600233B7302237B738AB004AC14F152
:10181000100217D012201AB1042801DD3B4B63617E
:1018200000233B7002237B70CAB10346082800DD09
:10183000A1610C2B02DD40F2FF73E36104F1200390
:1018400000210AE06FF00040E5E701F118063E4490
:1018500016F8186C03F8016B01310129F5D911282C
:1018600022DD122342B10421397300217973B97347
:101870000121F973F868206100216FF300016FF313
:1018800041016FF382016FF3C501022060F38811FB
:10189000C3F30A0363F353210023C1F313011C486C
:1018A00007F01BFBAD462DE06FF01B03DAE760F39A
:1018B0005328C0F30A0A0AEB1850173020F007002B
:1018C0008008FFF701FE8346B0B104230293FB18A2
:1018D00001930A230093534600F110022146484623
:1018E000FFF754FF08E004EB1154173424F0070409
:1018F000A008FFF7E9FD834633464246294658468D
:1019000007F081FA1C37BD46BDE8F08F60B80000D3
:1019100044B500002DE9F04F85B080460D461746CE
:101920001E46DDF838B0DDF84090B9F1000F41D027
:10193000119B039300934B460F9A10210020FEF752
:1019400083FEB0F5006F2DD282460BEB00031733F8
:1019500023F0070300246FF300046FF341046FF3D7
:10196000820468F3C50467F3881460F353246BF3AF
:101970001F549808FFF7A8FD074650B11030B9F181
:10198000000F06D0119B00934B460F9A5146FEF76D
:101990005BFE334622462946384607F034FA05B046
:1019A000BDE8F08F40F2FF73034A0221034807F0BD
:1019B0007CFAF4E70020C7E7A0B8000044B50000B7
:1019C000406820B1034BC01A40F3CF0070474FF07E
:1019D000FF30704724B500000EB400B582B0014658
:1019E00003AB53F8042B0193034801F0A3FA02B0B0
:1019F0005DF804EB03B07047118F000010B584B0A0
:101A000011F0440F05D01A4B1B6833B9002004B005
:101A100010BD1849FFF7E0FFF9E717490968B2FB65
:101A2000F1F2B2FBF3FC03FB1C224FF47A7E0EFBB7
:101A300002F2B2FBF3F403FB14210EFB01F1B1FB44
:101A4000F3F10E4AA2FB0C32D20A4FF4616303FB9E
:101A500012CC0B4BA3FB0CE35B0902910194C3EB8B
:101A60000311ACEB810100910649FFF7B5FFCEE70A
:101A7000F40E0020D8B80000F00E0020C5B3A291EB
:101A800089888888E4B8000061B108B52AB1064A9F
:101A900052F8232012B9054A00E0044A0449FFF72E
:101AA0009BFF08BD704700BF84B9000000B900006B
:101AB00008B900002DE9F04105461746069EDDF8FD
:101AC0001C8081B900242EB1324611492846FFF707
:101AD00083FF0444B8F1000F14D06FB1099B042BAD
:101AE00013D00C4909E00C4B099A53F822200B49FA
:101AF000FFF772FF0446E6E7064942462846FFF72D
:101B00006BFF04442046BDE8F0810549F5E700BFBE
:101B100020B9000010B9000098B9000018B9000001
:101B20000CB900002DE9F04F87B005460C46049231
:101B300005939DF84C7001F0020B01F0010AC1F30E
:101B4000C00801F4807907F046F918B30246164937
:101B50002846FFF741FF0646BBF1000F1CD13A466D
:101B60005146284607F0FFF9B9F1000F01D00023D4
:101B700011930397129B0293119B0193109B009367
:101B80000023049A41462846FFF794FF304407B0EB
:101B9000BDE8F08F0026DFE7059A21462846FFF7CB
:101BA0002DFF0644DBE700BF24B9000011F0100F41
:101BB0000BD108B511F0200F03D00449FFF70CFF3B
:101BC00008BD0349FFF708FFFAE770474CBA000069
:101BD000C8C500002DE9F04105460F461646984657
:101BE0000699FFF7E3FF0024444505DA2449284617
:101BF000FFF7F2FE0134F7E7002409E02049284608
:101C0000FFF7EAFE0BE01F492846FFF7E5FE013427
:101C10000F2C0CDC002C02DD14F0070FEED0B442C8
:101C2000F1D23A5D18492846FFF7D6FEEFE717498B
:101C30002846FFF7D1FE002409E011492846FFF7A6
:101C4000CBFE0BE012492846FFF7C6FE01340F2CED
:101C500013DC002C02DD14F0070FEED0B44207D2E3
:101C60003A5D0C4B9B5C13F0970FEBD12E22E9E70A
:101C700003492846FFF7B0FEE8E7BDE8F08100BF62
:101C80001CB9000030B9000028B9000034B90000C8
:101C900038B90000EDC500002DE9F04184B00446DC
:101CA0009DF82C500C9F0E9E95B9012B1ED0194803
:101CB0004FF0000827B13B462246174906F023FBA8
:101CC000C6B905BB204607F00CF904B0BDE8F081A9
:101CD00003950A980290019300920B4600220F99F7
:101CE0002046FFF71FFF80460C48E3E70B484FF004
:101CF0000008DFE70F9B0093434632460D992046CC
:101D000007F049F9DDE72A460F99204607F037F931
:101D1000D8E700BF498F0000352F0000118F000069
:101D20002DE9F04383B00646056842F20F738B42FB
:101D300028BF0B46184A0521684605F0A1FE044657
:101D40007368D3F804900B27DFF8508005E04A460B
:101D500039464046A8473F1A8044002FF7D17368A0
:101D6000D3F804806F4605E0424621463846A8472E
:101D7000241A0744002CF7D173685F681B24084EAF
:101D800005E03A4621463046A847241A0644002C6E
:101D9000F7D103B0BDE8F08384BB000058B9000060
:101DA0003CB90000074B01221A6004E04008054AD4
:101DB00013685B001360044B9842F7D8034B18601C
:101DC000704700BFF00E002040420F00F40E0020CC
:101DD000034B01221A70034B034A1A60704700BF7D
:101DE0007E170020200F0020240F002008B5034B91
:101DF00001221A70024807F01CF908BD7F17002065
:101E0000D8B90000014B1960002070470C0F00206A
:101E100008B518B9074B00221A7008BD064B1B788D
:101E200023B141F2883008F054FEF6E7052007F0B0
:101E300017F9F2E77E1700207F17002038B5044617
:101E40000A4B01221A700A4B1B782BB938BD651E4C
:101E50002046FFF7DDFF2C46002004F049F800285B
:101E6000F4D0024B1B78002BF1D1EFE77E17002056
:101E70007F1700202DE9F04107460E464FF0040879
:101E80000DE032463946002003F078FF044616E0A4
:101E90004046FFF7D3FFF4B9134B1B78DBB1134B6C
:101EA0001B78002BEDD108F007FE05463246394677
:101EB000002003F063FF0446284608F005FE002CCE
:101EC000E6D1094B1B78002BE5D008F1FF384046DE
:101ED000FFF79EFFDFE714B9034B1B7803B93446C5
:101EE0002046BDE8F08100BF7E1700207F1700204C
:101EF00008B50248FFF714FF08BD00BFD8B90000BD
:101F000010B50C46044B1868FFF72EFA03460F2253
:101F100021460248984710BD0C0F0020D8B9000098
:101F2000014B036000207047E8B9000008B5034882
:101F300006F046FA024806F043FA08BDE8B9000088
:101F400020BA000008B5024805F0F2FB08BD00BF4A
:101F500050BA0000B0F5680F17D00CD840F6BA633D
:101F6000984214D0B0F5683F13D03A2801D0012030
:101F7000704700207047094B98420CD0084B98429C
:101F800001D00120704700207047002070470020DA
:101F90007047002070470020704700BF3A00003AA9
:101FA0002C5F5CA9E8B108B54268B2F5683F07D07C
:101FB0000F498A421AD0006804F012FB002008BDC5
:101FC00003680022BFF35B8F53E8001F012903D190
:101FD00043E800200028F7D1BFF35B8F04D11046FF
:101FE000EDE76FF4E04070470248E8E70248E6E7B3
:101FF0002C5F5CA9E98FFFFFEA8FFFFF30B308B5C4
:102000004268B2F5683F0CD012498A421CD0006881
:102010004FF0FF324FF0FF3304F062FA88B10E4800
:102020000FE003680122BFF35B8F53E8001F002914
:1020300003D143E800200028F7D1BFF35B8F01D123
:10204000002008BD0448FCE70448FAE76FF4E040CC
:10205000704700BF2C5F5CA9E98FFFFFEA8FFFFF8D
:1020600010B50446A8B16368B3F5683F10D0B3F566
:10207000680F0DD00D4A93420AD013F4686F0DD04B
:1020800021680B4808F08FFD00232360074B636035
:1020900010BD084B5B6808489847E4E723680022B6
:1020A0001A605A609A60DA601A61EFE72C5F5CA9E7
:1020B0003C1400208C06002058BA000010B50446DD
:1020C00068B36068B0F5683F28D0B0F5680F25D0D8
:1020D000174B984228D0FFF73DFFC0B14FF0FF32B9
:1020E0004FF0FF332146134804F0C8F908B92368BC
:1020F0001BB9114B5B6811489847236800221A608E
:102100005A609A60DA601A614FF46863636020680D
:1021100008F0CAFD636843F03A03636010BD064BE4
:102120005B6807489847CCE72368002BD3D1D5E7F5
:102130002C5F5CA93C1400208C06002080BA0000B3
:1021400058BA000008B5402314220449044808F096
:102150001CFD0449044805F05DFB08BD3C0F002050
:102160003C140020B0BA0000C4BA00002DE9F041D0
:1021700082B000AF0446D0F800E0D0F804C0856813
:102180006E468AB06B4613F1100200F0888014216D
:102190008AB10846042903DDDFF81C81C3F81480E6
:1021A000082801DDC3F818E00C2801DDC3F81CC0C5
:1021B000102800DD1D62132974DD14253AB10521B4
:1021C000397100217971B971F9717868186100214C
:1021D0006FF300016FF341016FF382016FF3C501EB
:1021E000012363F38811C5F30A0565F353216FF3E7
:1021F0001F5100233148FFF7E1FAB546D4F80CC06F
:1022000026696569E8468AB06B4613F110024CD026
:10221000142182B10846042903DDDFF8A4E0C3F8E5
:1022200014E0082801DDC3F818C00C2800DDDE61C9
:10223000102800DD1D6213293ADD14253AB105216D
:10224000397100217971B971F971786818610021CB
:102250006FF300016FF341016FF382016FF3C5016A
:10226000012666F38811C5F30A0565F353216FF360
:102270001F51124D00232846FFF7A0FAC546E36917
:10228000104A3146284606F010FEA3690E4A314630
:10229000284606F00AFE0837BD46BDE8F0816FF01B
:1022A000004175E76FF01B0588E76FF00041B0E76C
:1022B0006FF01B05C2E700BFD4BA00005CB5000098
:1022C00004BB000034BB000044BB000038B504462A
:1022D0000D4611B10846FFF749FF012C04D02946ED
:1022E000204603F061FE38BDEFF30583103B034A3F
:1022F0000121034806F0D9FDF1E700BF74BB0000DF
:102300005CB5000030BFFFF7FDBF00BF38B5044625
:10231000054D2A46054908F0FAFE054A00216019D4
:1023200008F003FF38BD00BF00000000D0B500007A
:102330000400000070B50646064D074B1D444C1BBB
:102340002046FFF7E3FF083CC6F8A44005F108006B
:1023500070BD00BF0000000004000000074B9B6838
:1023600093F90E20002A08DB044A5269934204D0F4
:10237000034A536843F08053536070476C15002044
:1023800000ED00E081690D4B5A6942F480725A6198
:10239000BFF34F8FBFF36F8F31F8021C5A6922F4DD
:1023A00080725A61BFF34F8FBFF36F8F4DF6027388
:1023B000994201D0002070470120704700ED00E0F5
:1023C0004FF0000C83F800C002F07F4CBCF17F4F4F
:1023D00014D102F00C0CBCF1080F04D012F0080F5D
:1023E00009D00846704708B5054A0121054806F09E
:1023F00052FD002008BD01221A707047002070476E
:1024000088BB00005CB5000008B52B4A01212B48B1
:1024100006F041FD2A4B9B6A13F0007F21D11D205D
:10242000274B9B6A13F0807F22D1254B9B6A13F4C4
:10243000002F24D1224B9B6A13F4802F26D1204BEE
:102440009B6A13F4003F28D11D4B9B6A13F4803F15
:102450002AD11B4A936A6FEA03436FEA13439362DC
:1024600008BD184A0121154806F015FD1E20D7E7C2
:10247000154A0121114806F00EFD1F20D5E7134A29
:1024800001210E4806F007FD2120D3E7104A012163
:102490000A4806F000FD2220D1E70E4A0121074834
:1024A00006F0F9FC2320CFE70B4A0121034806F090
:1024B000F2FC2420CDE700BFB4BB00005CB50000F7
:1024C00000ED00E0CCBB0000E0BB0000FCBB000066
:1024D0001CBC000044BC000060BC000008B5002328
:1024E0000B70034A0121034806F0D5FC08BD00BF6C
:1024F0008CBC00005CB5000090B583B000AF0F2924
:1025000023DC2F4C103900233B7102237B718AB0EE
:10251000EC461CF110021AD0122022B1042802DD70
:10252000284BCCF8143000233B7002237B70E2B1BF
:102530000346082801DDCCF818400C2B01DDCCF84F
:102540001C100CF1200300210DE01F4CDAE76FF0A6
:102550000040E2E701F1080404EB070E1EF808EC66
:1025600003F801EB01310129F4D9112824DD1223EC
:102570004AB10421397100217971B9710121F971D0
:102580007868CCF8100000216FF300016FF341016F
:102590006FF382016FF3C501012060F38811C3F36B
:1025A0000A0363F353216FF31F5100230748FFF71A
:1025B00005F90C37BD4690BD6FF01B03D8E700BF8F
:1025C000B0BC0000E4BC0000C8BC00005CB500006A
:1025D000F8B505460F461446374A0121374806F03C
:1025E0005AFC374B9B6A13F4805F25D11626344B77
:1025F0009B6A13F4006F26D1314B9B6A13F4007F62
:1026000028D12F4B9B6A13F4806F3FD12C4B9B6AD0
:1026100013F4807F41D12A4B9B6A13F4005F43D1AE
:10262000274A936A43F47F4393620121284606F0C8
:102630003AFD20703046F8BD224A01211F4806F0BD
:102640002AFC1726D3E7204A01211C4806F023FC68
:102650001826D1E71D4A0121184806F01CFC184A2B
:10266000936B926A12F4004F01D11926C9E7184AF8
:102670000121124806F019FC37B1114A936A23F47C
:10268000004393621926BCE71926BAE7114A0121D3
:102690000A4806F000FC1A26B8E70F4A012107484D
:1026A00006F0F9FB1B26BBE70C4A0121034806F0A4
:1026B000F2FB1C26B4E700BFF8BC00005CB50000CC
:1026C00000ED00E010BD000024BD000038BD00009A
:1026D00054BD00006CBD000088BD0000A0BD00001E
:1026E0002DE9F04104460F461546464A0121464869
:1026F00006F0D1FB454B9B6A13F0100F3CD110261E
:10270000424B9B6A13F0080F3DD1404B9B6A13F07C
:10271000020F3FD16FF015083C4B9B6A13F0010F7D
:1027200058D13A4B9B6A13F0200F5AD1374B9B6A12
:1027300013F0100F04D1354B9B6A13F0020F04D035
:10274000324B5B6813F4006F52D1304B9B6A13F02D
:10275000200F04D02D4A536A23F4005353622B4AAE
:10276000936A43F0FF0393620121204606F09BFC2D
:1027700028703046BDE8F081254A0121224806F044
:102780008AFB1126BCE7234A01211F4806F083FB80
:102790001226BAE7204A01211B4806F07CFB1B4B9E
:1027A000D3F834809B6A13F0800F03D16FF01508C3
:1027B0001326B1E74346194A0121134806F075FB79
:1027C00037B1124A936A23F0800393621326A3E77A
:1027D0001326A1E7124A01210B4806F05CFB1426E0
:1027E0009FE7104A0121084806F055FB15269DE792
:1027F0002146404600F028FA0028A6D080F3098838
:102800000226A2E7D0BD00005CB5000000ED00E0AC
:10281000E8BD000024BD00001CBE000034BE000066
:102820004CBE0000A0BD000070B506460D462B4A08
:1028300001212B4806F02FFB00232B70294BDC6A6B
:1028400014F002040AD1274BDB6A002B0DDB254B69
:10285000DC6A14F080440ED1204670BD224A01216A
:102860001F4806F018FB0024F6E7204A01211C4807
:1028700006F011FBF0E71E4A0121194806F00BFB98
:102880003046FFF77FFD98B9164B9B6A13F0FF0F98
:1028900016D1144B9C6A14F47F4418D1114B9B6AD7
:1028A000B3F5803FD8D33046FFF7AEFD0446D3E7FB
:1028B0003368104A01210A4806F0F7FA3468CBE77A
:1028C0002A4601213046FFF70BFF0446C4E72A469B
:1028D00001213046FFF77CFE0446BDE76CBE0000D8
:1028E0005CB5000000ED00E084BE0000A8BE000062
:1028F000B8BE0000D8BE000030B58BB01F4B5D687D
:10290000C5F30805002383F31188BFF36F8F0DF122
:102910002603FFF755FD04460DF12702294606F070
:10292000C4FB9DF827300BB10BB030BD05460DF14F
:10293000040C20686168A268E368ACE80F002069B5
:102940006169A269E369ACE80F009DF826304BB1DC
:10295000089BC3F308025AB96FEA53236FEA432373
:10296000089305E0089B23F4FF7323F00103089309
:1029700001A92846FFF7AAFCD6E700BF00ED00E05A
:10298000044B5A6942F010025A615A6922F0080257
:102990005A61704700ED00E0EFF30880EFF3098122
:1029A00001B57246FFF7A8FF01BD00BF002080F30C
:1029B0001488BFF36F8F114880F3088800201049F6
:1029C000087002F04BF900200E490860BFF34F8FEA
:1029D00000F030F8202080F311880B484FF4046198
:1029E000401880F30988EFF314800221084380F334
:1029F0001488BFF36F8F00F0E9F80000C0280020B2
:102A00008317002094ED00E0001B0020084BD3F852
:102A10009000C0F30720002306E0054AC2F8983072
:102A20000021C2F8A01001338342F6DB704700BFDB
:102A300000ED00E010B572B6002484F31388FFF7B0
:102A4000E5FF234608E003F120010E4A4FF0FF3076
:102A500042F821000133DBB2072BF4D9002308E050
:102A600003F16001074A4FF0FF3042F821000133C3
:102A7000DBB2072BF4D962B6BFF34F8FBFF36F8F72
:102A800010BD00BF00E100E008B50A4B9B6883421F
:102A900002D004F0A7FA08BDEFF30583002BF8D0AD
:102AA000054B5A6842F080525A605A6A22F400423A
:102AB0005A62EEE76C15002000ED00E016498A68C6
:102AC0004FF030001044EFF3098C80E8F01F202015
:102AD00080F31288BFF36F8F104F4FF000664A6982
:102AE0008A603E604FF0A404141920680C4C2060EA
:102AF000D2F8A8000023C2F8A83080F3118804B5EA
:102B0000104600F023F9BDE8044002F1300090E8DF
:102B1000F01F8CF3098870476C15002004ED00E06D
:102B2000581400201EF0040F0CBFEFF30880EFF3E1
:102B30000980816911F8021C0229FFD001B5724693
:102B400006F0A5FA01BD00BF002807DB00F01F0258
:102B5000400901239340024A42F82030704700BFE9
:102B600000E100E000280CDB00F01F024009012317
:102B700093402030034A42F82030BFF34F8FBFF319
:102B80006F8F704700E100E0002808DB4901C9B2FF
:102B900000F1604000F5614080F80013704700F0DC
:102BA0000F004901C9B2014B1954704714ED00E000
:102BB0004209054B53F8222000F01F00012303FABD
:102BC00000F01040704700BF00E100E008B50B4B7B
:102BD0000B4A22F07F029A60BFF34F8FBFF36F8FD3
:102BE000D3F8882022F47002C3F8882003F08CFB0D
:102BF00004F056FB00F072F803F0E4FB00ED00E097
:102C00000000000010B4A2F120040E4942F8081C94
:102C100021F0010142F8081C42F8203C019B42F8D7
:102C20001C3C029B42F8183C039B42F8143C4FF0BA
:102C3000807342F8043C04650023C0F8A83010BC3F
:102C4000704700BFCD0F0000104B9B68BBB110F167
:102C5000160F0BD0D3F89420A2F1400C844510D865
:102C6000824210D98A4207D800207047D3F89420B6
:102C70008A4201D800207047D3F8940070470020A2
:102C80007047002070470020704700BF6C1500207F
:102C900008B50E4615460A4A9060D0F8A420094BA4
:102CA0001A6000F053F82C4686F309880020064B82
:102CB00098472046002100220023044C204700BFF3
:102CC0006C1500205814002021910000CD0F000049
:102CD000014B10221A61704700ED00E0002206E06F
:102CE00003F00F030949194420230B7601322F2AE0
:102CF0000ADC53B2002BF3DB03F1604303F56143BD
:102D0000202183F80013F1E7704700BFFCEC00E0DE
:102D100008B5EFF30583103B044A02EBC301496891
:102D200052F833008847FFF719FB08BD34B30000A1
:102D300008B5034B034A0121034806F01CFB08BDFC
:102D40000000042000000020F4BE000008B5D0F808
:102D50009430403B0448036040234360034B83604E
:102D6000012106F00CFB08BD5C14002000000B15CF
:102D7000084AC2F898000B6823F01F03034343F08E
:102D80001003C2F89C308B6843F00103C2F8A030F6
:102D9000704700BF00ED00E010B504460A4BD3F8C1
:102DA0009030C3F30723013B984203D8FFF7E0FFBD
:102DB000204610BD0346054A0121054806F075F876
:102DC0006FF01500F5E700BF00ED00E004BF000064
:102DD00054B500002DE9F04780460F469A46164646
:102DE000002409E02946F0B206F0CEF9064610F1BB
:102DF000160F1AD001360134BC4216DA04EB440532
:102E000008EB85056A68002AF5D0BAF1000FE9D011
:102E1000284606F0A8F90028E4D12346044A0121F7
:102E2000044806F042F86FF015063046BDE8F0871A
:102E30002CBF000054B5000010B5034C01232278CC
:102E4000FFF7C8FF207010BD8017002008B50023D1
:102E50000B4A1278FFF7BEFF10F1160F0FD0024693
:102E600006E0084BC3F898200021C3F8A0100132F7
:102E7000044BD3F89030C3F307239342F1DC08BD31
:102E80008017002000ED00E0044B0522C3F89420D9
:102E9000BFF34F8FBFF36F8F704700BF00ED00E0AF
:102EA000BFF35F8F024B0022C3F89420704700BF2E
:102EB00000ED00E038B51C4B1D681C4BD3F890307A
:102EC000C3F307239D422BD8FFF7EAFF002409E054
:102ED000154B5B6804EB440103EB81012046FFF7CF
:102EE00047FF0134A542F3D81148057006F06BF98D
:102EF00010F1160F13D00E4B1A780C4BD3F89030FC
:102F0000C3F307239A4207DA084BC3F8982000213D
:102F1000C3F8A0100132F0E7FFF7B6FF002038BD7C
:102F20004FF0FF30FBE700BF50BF000000ED00E0B6
:102F30008017002030B587B00D461146002400945C
:102F40000194029403940494059402228DF80220C3
:102F5000044A0192049005951A46684604F0BCFDA7
:102F600007B030BD8793000008B5024B1B68984737
:102F7000002008BD68140020034B1860034A9378B2
:102F800043F0020393707047681400208805002006
:102F900008B5064921F00701C1F1005202F580226F
:102FA000034805F0F9F8002008BD00BF07290020FC
:102FB0006C140020024B0122C3F84025002070470A
:102FC00000E0014030B108B5034B800143F001033C
:102FD000984708BD704700BFE0B5000021B1012946
:102FE00007D06FF0850070470020054BC3F800053F
:102FF0007047034B0122C3F800250020704700BF33
:1030000000700040074B0122C3F8002590F876308D
:1030100013B1044BDA607047024B01221A605A6008
:10302000704700BF0070004069B938B5064CD4F84D
:103030002C56D4F8341689B2643006F0F5F90544FC
:10304000C4F82C5638BD7047007000404268044BED
:1030500093F898301A4214BF01200020704700BF37
:10306000C004002010B444680D4B93F898100D4B29
:10307000D3F82C06012302E002305B009BB2994298
:103080000BD3E2B21A42F8D01942F5D0B0F90020C1
:10309000002AF1DA00220280EEE710BC704700BF80
:1030A000C004002000700040F0B583B000230093FE
:1030B000CDF803300D7905F01F058E79072D00F24C
:1030C00084800C460B780C2B30D8DFE803F00A071D
:1030D000172F1B2F1F2F2F23272F2B0001238DF896
:1030E00002306378032B29D0042B2AD0384A0121DF
:1030F000384805F0D0FE6FF015074CE002238DF83C
:103100000230EEE703238DF80230EAE704238DF85E
:103110000230E6E705238DF80230E2E706238DF85A
:103120000230DEE707238DF80230DAE72A4A012170
:10313000284805F0B0FE6FF015072CE001238DF84C
:10314000033001A9608806F071F9074630BB237986
:1031500013F0200F2AD001238DF805301F4890F876
:103160009820217901F01F018B4022EA030380F8A7
:1031700098306279194B2B4483F89020184C6A469A
:103180002946204606F00AF951352B0104EB0515B6
:103190000022E2506E60384603B0F0BD114A0121B2
:1031A0000C4805F078FE6FF01507F4E700238DF862
:1031B00005300A4890F89830217901F01F0101226A
:1031C0008A40134380F89830D3E76FF01507E2E7A1
:1031D000A4BF000024B5000084BF0000C00400208C
:1031E00000700040C8BF000008B5037CA3F10802CE
:1031F000062A0DD8DFE802F0140C160C040C0A00A5
:103200000222094BC3F8F025002008BD0322F8E78D
:10321000064A0121064805F048FE6FF01500F4E764
:103220000022EEE70122ECE700700040F4BF00004E
:1032300024B5000008B5012901D9437C4BB9437C72
:10324000082B0ED8DFE803F0151515151515151503
:1032500015000A4A01210A4805F01DFE6FF015000D
:103260000BE0084A0121064805F01FFE6FF015002B
:1032700003E0054AC2F8F435002008BD1CC0000078
:1032800024B5000050C000000070004010B582B0AE
:10329000044606F0C9F8236813B19B8903FB0000BC
:1032A000E368834202D3002002B010BD0090044ABC
:1032B0000121044805F004FE6FF00B00F4E700BFA5
:1032C00074C0000024B5000010B582B000F10804FD
:1032D000806F410CC003094BC018094A4FF000032E
:1032E00041F10001FCF70CFF009001910022002346
:1032F000204604F095F902B010BD00BF3F420F0018
:1033000040420F00F8B50D4649684B1EFE2B02D80F
:1033100000231C4621E0354A0121354805F0BBFD5C
:103320006FF0150342E0334A0121314805F0BDFD3D
:103330006FF015033AE0304800EB031CDCF8182569
:1033400022F08072CCF8182503F1510212010026F8
:1033500086500133DBB2072B23D81A4621FA03F03B
:1033600010F0010FE7D02548184490F89060002E27
:10337000D9D095F811C0BCF1000C18BF4FF0010C6A
:103380001D4F07EB031EDEF8180520F0807040EAA1
:103390000C60CEF8180551321201BE500134E4B26F
:1033A000D7E72846FFF720FF034608B11846F8BDC7
:1033B00021462846FFF73EFF03460028F6D1214666
:1033C0002846FFF763FF03460028EFD1AA680A4B9F
:1033D000C3F82C26C3F83046084C2946204606F090
:1033E00099F8204606F089F80346DFE79CC0000004
:1033F00024B50000BCC0000000700040C0040020E4
:1034000070B504460D46084E00221146304606F0BF
:103410006BF829462046FFF775FF044606F1400089
:1034200003F034F9204670BDC004002038B50446CE
:103430000E4B0025C3F80451D3F80421C3F81051F2
:10344000D3F810211222C3F80423072005F052FEFE
:103450002A460121072005F057FE054806F089F8A5
:103460000449204605F0CEFF38BD00BF0070004083
:10347000C0040020DD2F0000164BD3F80431C3B187
:1034800010B50446134B0022C3F80421D3F80411ED
:1034900001219960C3F800250F48FFF7D7FD20B937
:1034A00021460E4806F06DF810BD0B48FFF7DAFD17
:1034B000F6E7084BD3F8103153B1064B0022C3F89E
:1034C0001021D3F8102101229A601A605A607047C7
:1034D000704700BF0070004024050020C004002099
:1034E00000487047CC140020034BC01A8010034BD7
:1034F00003FB00F0704700BF8C140020B76DDBB6F3
:1035000038B505460C46FFF7EFFF01464022034859
:1035100006F012F901462846A04738BDBCB20000AB
:1035200030B583B005460C46FFF7DEFF0146402369
:1035300000932346054A064806F018F9011E01DBF0
:1035400003B030BD2846A047FAE700BFB59700009A
:10355000BCB2000008B510B101280DD008BD002193
:10356000084806F075F8836813F0070FF6D10021BC
:10357000044806F0CFF8F1E70121024806F0CAF846
:10358000ECE700BFBCB2000010B582B0EFF31184CD
:10359000202383F31288BFF36F8F154A136843F01B
:1035A0000201116013F0010F09D1002384F3118887
:1035B000BFF36F8FB3B906F005F902B010BD0DF17E
:1035C000070201214FF0804006F026F89DF80730F1
:1035D000012B01D00023E9E7FFF782FF06F088F80E
:1035E0000123E3E70021034806F094F8E5E700BF74
:1035F000DC140020BCB2000010B5EFF311842023CE
:1036000083F31288BFF36F8F074A136823F0020118
:10361000116013F0010F04D084F31188BFF36F8F92
:1036200010BD06F0D9F8F7E7DC14002070B582B0C1
:103630000546012807D14FF08043D3F81C3403F02E
:103640000303012B4BD007F06BFB044618B9284B42
:103650001B78002B38D1EFF31186202383F31288D7
:10366000BFF36F8F012424B94FF080430222C3F8C7
:10367000082301AA00214FF0804005F0CDFF20B1C2
:10368000019B012B26D0012D24D0FCB1304605F042
:103690005BFD4FF08043D3F81835002BE9D14FF094
:1036A0008043D3F80431002BE3D04FF08043002255
:1036B000C3F80421D3F804210122C3F818250D49C9
:1036C000C1F880219A60D4E70026CCE7012006F0FB
:1036D0008DF8DEE72CB186F31188BFF36F8F02B04F
:1036E00070BD4FF080430222C3F80423F7E700BF08
:1036F0008317002000E100E000B585B0CDF800D0D0
:10370000CDF804D000230293012303936B46074AAC
:1037100006F048F8002805DB4FF480420023684695
:1037200002F0F8FF05B05DF804FB00BF1998000037
:1037300070B5064600220121104605F0E5FC11484F
:1037400001F0CAFB104B984219D101F0D9FB0024BB
:10375000012C12D82146304605F07AFF0546214655
:10376000304605F082FF094905F015FA002805DB0F
:103770000123AB601C44E4B2EAE7002070BD6FF0A7
:103780000400FBE7553500000000AD0BF8C0000059
:1037900008B5C1B2014805F068FF08BDBCB2000021
:1037A00010B50446104B0121BFF35B8F53E8002F87
:1037B00043E800100028F9D1BFF35B8F1AB1631EF4
:1037C000012B0DD910BD094805F04FFF0849002312
:1037D0004B608B60CB6001238B6005F0F9F9EEE75D
:1037E0002046FFF723FFEDE788140020BCB200005D
:1037F0007814002010B5044C2046FDF7E1FB20466C
:10380000FFF7BAFB002010BD0D38000030B583B0C3
:1038100005468DF80700022401220DF10701002062
:1038200002F04AFB38B9094B1B785BB13CB106F09A
:103830000EF8013CF0E7054B01221A7002E0034B41
:1038400000221A70284603B030BD00BF8117002047
:10385000F0B51C46059F069E00F01F0C400936D0AF
:10386000012837D1284D0CF5E07355F8233099B372
:1038700001209AB34FF0020E40EA0E008CB34FF0D5
:103880000C0E40EA0E007FB34FF4E06E40EA0E00EB
:103890006EB34FF4403E40EA0E0023EA000049B305
:1038A0000B784AB31278520013433CB3227892004B
:1038B00013432FB33A78120213431EB33278120423
:1038C000134303430CF5E07C45F82C30F0BD4FF07A
:1038D000A045C8E70025C6E70020CAE74FF0000E64
:1038E000CAE74FF0000ECCE74FF0000ECEE74FF0E6
:1038F000000ED0E70023D4E70022D5E70022D7E767
:103900000022D9E70022DBE70003005000F01F038C
:10391000400909D001280AD1064A03F5E07352F89C
:10392000230000F0010070474FF0A042F5E70022AD
:10393000F3E700BF0003005028B1012801D103487C
:103940007047002070470248704700BFD0B20000A7
:10395000E4B200002DE9F04786B088461546994646
:10396000446801F01F07237B47EA4317204605F010
:10397000D9FF002853D0B5F5001F2AD00DF10C0A4D
:103980000026039604964946284606F040F88DF82E
:103990000C00009601960296CDF804A0A36823FAC5
:1039A00008F313F0010F02D1B5F1A07F18D0103445
:1039B0006A463946204606F089FE1C4B984231D1B2
:1039C00001223946204606F0A5FE002006B0BDE8DB
:1039D000F087394604F1100006F0A0FE0020F5E75C
:1039E0003846FFF793FF0028E1D104F110050DF1EF
:1039F00017023946284606F075FE0D4B984203D053
:103A00000DF117030493D2E70DF11701284606F0D4
:103A10007DFE064B9842F3D06FF00B00D6E76FF0B7
:103A20008500D3E76FF01500D0E700BF0000AD0BB5
:103A30000400AD0B2DE9F04389B0074689461446D2
:103A4000456801F01F082B7B48EA4318104605F033
:103A50006EFF8DF81E0040F206332340B3F5837FDE
:103A60005ED016D8062B57D006D9B3F5807F0DD17E
:103A700001238DF81D3024E003B3022B03D104236E
:103A80008DF81D301DE06FF015076FE06FF0150722
:103A90006CE040F20222934246D0B3F5407F03D15E
:103AA00003238DF81D300CE0B3F5007F03D1022312
:103AB0008DF81D3005E06FF0150757E000238DF8F5
:103AC0001D30012606FA09F63146384605F03DFF5D
:103AD000071E4BDB14F4002F2AD06B68C3F808656F
:103AE000284605F01FFF50B310350DF11F02414667
:103AF000284606F0F7FD064614F4403F3AD1414609
:103B0000284606F0FBFD3A4B9E422FD19DF81F1030
:103B1000284606F0F7FD29E006238DF81D30D0E792
:103B200007238DF81D30CCE705238DF81D30C8E73D
:103B300014F4802FD4D06B68C3F80C65D0E7C4F3BD
:103B400040438DF8083014F4803F0CBF012300235C
:103B50008DF81030002301930DF11D0300930DF13A
:103B60001E0304AA02A94046FFF772FE384609B0B8
:103B7000BDE8F08302AA0023029303930493059304
:103B80000693059204AA4146284606F09FFD184B6D
:103B9000984202D06FF01507E8E714F4003F1AD0FE
:103BA0009DF81D308DF8103014F4803F0CBF0123B8
:103BB00000238DF811309DF81E308DF8123000234F
:103BC00004AA4146284606F085FD094B98429AD042
:103BD0006FF01507CAE700230493059306930DF1D0
:103BE0001E03049304AA4146284606F06FFDECE745
:103BF0000000AD0B10B54468204605F093FE08B9EF
:103C0000002010BD1034204606F074FD08B10020DD
:103C1000F7E70021204606F069FD094B98420BD1D9
:103C200000220849204606F059FD00220521062001
:103C300005F06AFA0020E4E76FF00400E1E700BF56
:103C40000000AD0B479A000070B400F01F0C400953
:103C500019D001281AD10E4D0CF5E07055F82060EE
:103C60000C4C344041EA420141EA83039DF80C20A8
:103C700043EA02239DF8102043EA0243234345F818
:103C8000203070BC70474FF0A045E5E70025E3E722
:103C900000030050F0F8FCFF00F01F01400907D0BE
:103CA000012808D1054A01238B40C2F80835704726
:103CB0004FF0A042F7E70022F5E700BF00030050F5
:103CC00000F01F01400907D0012808D1054A01234F
:103CD0008B40C2F80C3570474FF0A042F7E7002246
:103CE000F5E700BF000300502DE9F04F85B007460F
:103CF00088469146002420E04FF0FF3633E0C9F8B3
:103D000008650295012303930021B6F1FF3F12D00D
:103D1000002942D057F80A3013F4004F41D1039DD7
:103D200000220192CDF800B0C3F34123029A294644
:103D30003046FFF789FF0134E4B2444534D24FEAFC
:103D4000840A57F82430C3F3C725C3F3C322C3F34F
:103D5000080615F0080529D1164911F802B040F2FD
:103D6000FF129642C8D01B0E052B08D0062B0DD093
:103D7000042BC4D06FF0850005B0BDE8F08FC9F802
:103D80000C650123029303930021BEE7C9F8106577
:103D9000029503954FF0FF31B7E7304605F07BFE03
:103DA000B8E701220292BBE70020E5E76FF01500BB
:103DB000E2E700BF9CC10000014B01221A6070477E
:103DC00000C0004003690C2910D15B6A094901FB5E
:103DD00003F3094880FB0310D917C1EBA041116020
:103DE000064800FB11335360002070476FF08500D8
:103DF000704700BF90D0030083DE1B4340420F009A
:103E00002DE9704384B00469A36A7BB33F2901D0D4
:103E10000C292ED104F110064FF0FF384FF0FF3976
:103E200042464B46304602F05BFB00250195029569
:103E30000395114B0193032302936946A06A04F092
:103E4000C7FE42464B46204602F064FCA06A04F0DE
:103E50001EFF0A4BD3F80825626201225A603046E1
:103E600002F0BEFB284604B0BDE870836FF00A0084
:103E7000F9E76FF08500F6E7B93D000000C00040AB
:103E800010B504690020FFF783FCA0624FF0FF32F9
:103E90000021204606F00FFF04F1100006F004FF99
:103EA000002201210C2005F02FF90C2005F022F949
:103EB000024B0122C3F80423002010BD00C00040C3
:103EC00008B50069044B0022C3F80021D3F8003183
:103ED00002F0DCFB08BD00BF00C0004000F01F0185
:103EE000400907D0012808D1054A01238B40C2F8B8
:103EF000083570474FF0A042F7E70022F5E700BF12
:103F00000003005000F01F01400907D0012808D12C
:103F1000054A01238B40C2F80C3570474FF0A04290
:103F2000F7E70022F5E700BF00030050144B98426A
:103F300016D2144B984215D2134B984214D2134BFD
:103F4000984213D8124B984212D8124B984211D86B
:103F5000114B984210D8114B98420FD91048704716
:103F60000748704707487047074870470D48704733
:103F70000D4870470D4870470D4870470D48704711
:103F80000048E8010024F40000127A00FF083D0018
:103F90007F841E003F420F001FA107008FD0030047
:103FA00090D0030000093D0080841E0040420F00B5
:103FB00020A1070048E8010038B504460020034668
:103FC00005E0626B02EBC302526810440133A26B3E
:103FD0009342F6D30022134605E0E16B01EBC301E7
:103FE00049680A440133216C8B42F6D3824238BFC0
:103FF00002464FF4FA5303FB02F0254655F8203BE6
:104000001B68B0FBF3F0C830410CC00340F2E7334B
:10401000C0184FF47A724FF0000341F10001FCF731
:104020006FF802460B46284602F074FB08B9206B75
:1040300038BD044A0121044804F02DFF6FF07300DD
:10404000F6E700BFC0C100006CB500002DE9F043E9
:104050008BB000AF05460C460669D0F80480D8F84E
:10406000089096F85D301BB13368994200F0ED80FE
:10407000A28812F4006F59D112F0010F5ED112F034
:10408000080F40F0AF80C2F34512082A40F0B2801A
:1040900022686F4B9A4240F2B58007F1080C08F194
:1040A0000C0EBEE80F00ACE80F009EE80F008CE895
:1040B0000F002068484528BF4846FFF737FFF861E2
:1040C000A38813F0020F00F0A58013F0040F00F096
:1040D000A680032387F82030A38813F0100F00F088
:1040E000A280012387F82130D8F80030D3F80805E2
:1040F000A188C1F3400105F038FD96F85D30002B32
:1041000040F093802B46534A07F10801404601F0E6
:1041100023FD514B984240F08F80012386F85D309B
:10412000346000202C37BD46BDE8F0834B4A0121A6
:104130004B4804F0B0FE6FF08500F3E729686D4648
:1041400000233B7102237B7188B06C4614F110028E
:1041500011D00E201AB1042801DD424B6361002307
:104160003B7002237B709AB1082800DDA16104F145
:104170001C0300210AE06FF00040EBE701F1280684
:104180003E4416F8286C03F8016B01310129F5D97A
:104190000D2824DD0E2342B10321397100217971EC
:1041A000B9710121F9717868206100216FF3000174
:1041B0006FF341016FF382016FF3C501012060F3DA
:1041C0008811C3F30A0363F353216FF31F510023D4
:1041D0002348FDF7F3FAAD466FF01500A2E76FF044
:1041E0001B03D8E7204A01211D4804F054FE6FF05C
:1041F000150097E71D4A0121194804F04CFE6FF0A5
:1042000015008FE71A4A0121154804F044FE6FF0AB
:10421000150087E713F0040F03D001235AE70223A8
:1042200058E7002356E700235CE7404601F0CCFC4A
:10423000002386F85D3065E703460E4A01210848F1
:1042400004F033FE6FF004006CE700206AE700BF63
:1042500047E801003D4300000000AD0BE8C100004D
:104260006CB5000004C2000028C2000048C2000073
:1042700078C20000ACC200002DE9F04184B00546D0
:1042800004694768A26C002A49D0236D002B48D0EE
:10429000934228BF1346002B4BD0616CD4F84C805E
:1042A0003E8E9E4200D31E4669B162B101F060436A
:1042B000B3F1005F07D0082E00D908263246206EE1
:1042C00006F025FF216EE26C5AB1236D4BB108F068
:1042D0006043B3F1005F04D0082E00D90826D4F85B
:1042E0006480A6650091636CEBB1A36CEBB901939C
:1042F000CDF80880DAB1236D03B91E46039600227B
:104300006946384601F0AEFC0B4B984204D06FF082
:104310000401284605F0C7FC04B0BDE8F081236D18
:10432000B9E71346B7E70023E1E73346DFE70026A6
:10433000E4E70021EDE700BF0000AD0B10B50C690C
:104340000378002B4BD1A26DC2B1E36C4BB1216D50
:1043500039B1C16829B1994203D0616E184606F09F
:10436000D6FEA26DA36CA3B19A420DD89B1AA3648A
:10437000E3B1636C6BB1134463640AE06FF07301E3
:10438000606D05F090FC2AE01E4A01211E4804F0F1
:1043900082FDA26D236DFBB19A4218D89B1A23654A
:1043A000F3B1E36CC3B11344E36415E0636B08330A
:1043B0006363A36B013BA363012304F1480204F18F
:1043C000380104F1340005F0D8FB6064E1E70D4AE0
:1043D00001210D4804F05FFD606DFFF74DFF10BD3A
:1043E000E36B0833E363236C013B2364012304F193
:1043F000500204F1400104F13C0005F0BEFBE06412
:10440000EAE700BFD4C200006CB500002DE9F0431C
:1044100083B004460D4690461F460669D0F80490C6
:1044200000910C9B0B9A9DF82810304605F058FC23
:1044300029462046FFF70AFE0546E8B9012386F81B
:104440005C30D9F83810B1F1FF3F1DD101233A4655
:104450004146304605F0A8FB00220121304605F018
:10446000D3FB2046FFF708FF3046FFF7A5FD0546C2
:1044700010F1740F15D028BB2946304605F023FCF7
:10448000284603B0BDE8F08309F13C0005F085FC47
:1044900010F1740FDAD10E4A02210E4804F0FBFC31
:1044A000D4E70027B765484601F08EFB86F85D70BB
:1044B0006FF07301204605F0F6FB06F1200002F0D4
:1044C00051F9D9E70121204605F0BEFBD4E700BF32
:1044D000F4C200006CB50000F0B583B000AF054633
:1044E00084685BE023681E6821796D4600233B7178
:1044F00002237B718AB06C4614F1100215D0122091
:104500001AB1042801DD314B636100233B700223A3
:104510007B70C2B10346082800DDA6610C2B00DDCC
:10452000E16104F1200300210BE06FF00040E7E7B8
:1045300001F1080606EB070C1CF808CC03F801CBC8
:1045400001310129F4D9112824DD122342B10421BB
:10455000397100217971B9710121F971786820618F
:1045600000216FF300016FF341016FF382016FF3DC
:10457000C501012060F38811C3F30A0363F35321DB
:104580006FF31F5100231248FDF718F9AD466FF085
:10459000120017E06FF01B03D8E70834AB68EA6835
:1045A00003EBC2039C420CD2206806F098FA002864
:1045B00098D04FF4B011204605F09DFA0028ECDAAF
:1045C00000E000200C37BD46F0BD00BF20C3000056
:1045D0006CB50000F8B50546466807690021706BA8
:1045E00005F0AEFB041E12DBB16BB1F1FF3F10D141
:1045F000F36A98473846FFF76FFF041E07DB38461B
:1046000005F02BFB0E49284605F09DFA044620468E
:10461000F8BD06F13C0000F043F8044610F1130F1A
:1046200008D010F1050FE3D1064A0121064804F035
:1046300032FCECE7054A0121034804F02CFCE6E7D4
:10464000719D000070C300006CB5000044C3000001
:1046500070B400F01F0C400919D001281AD10E4D7A
:104660000CF5E07055F820600C4C344041EA4201F2
:1046700041EA83039DF80C2043EA02239DF81020B1
:1046800043EA0243234345F8203070BC70474FF0A3
:10469000A045E5E70025E3E700030050F0F8FCFF44
:1046A00030B587B004460D4601238DF8173002233C
:1046B0008DF80C300DF1160104910DF117030093E4
:1046C00003AB01930023029306F020F80C4B9842B1
:1046D00012D16A462946204605F0F8FF084B984259
:1046E00002D1002007B030BD9DF81610204606F01C
:1046F00009F86FF00400F5E76FF01200F2E700BF71
:104700000000AD0B21F07F4100F5A870014B43F88C
:1047100020107047001001404FF480338340024A5C
:10472000C2F84433704700BF001001404FF480339B
:104730008340024AC2F84833704700BF001001406E
:10474000014BD3F804057047001001402DE9F843F0
:10475000054689469046FFF7E9FF284605F0A9FB84
:104760004E46032710E0FFF7EBFF0446494605F0ED
:104770008FFBB0F5000F26D9284605F09AFBB8F15B
:10478000000F22D13E19013731462846FFF7BAFF04
:104790002846FFF7C1FFFFF7D3FF0446C11C304690
:1047A00005F076FB0A4B98420AD9284605F074FBBF
:1047B0000028D8D1B8F1000FE4D06FF0150000E068
:1047C0000020BDE8F8830020FBE76FF01500F8E754
:1047D000FDFF7F00034B044AC3F80823C3F84823B6
:1047E000704700BF0010014003000F0010B5012307
:1047F00083406FEA030C0E4ABFF35B8F52E8001F41
:1048000001EA0C0E42E800E4002CF7D1BFF35B8F05
:104810004FF4803282400748C0F80823BFF35F8F0F
:10482000BFF36F8F0B4214BF0120002010BD00BFEB
:1048300038150020001001404FF480338340144AA3
:10484000D2F80423134201D10020704710B504466A
:1048500001238340DB430F49BFF35B8F51E8002FF7
:1048600002EA030041E8000CBCF1000FF6D1BFF3EF
:104870005B8F22FA04F313F0010F03D1204605F0F9
:104880000BFB18B1204605F014FB012010BD00BF42
:10489000001001403415002001B970470123834006
:1048A000114ABFF35B8F52E800CF4CEA030C42E899
:1048B00000C10029F7D1BFF35B8F4FF480338340F1
:1048C0000A4AC2F80433BFF35B8F094B1B68BFF37E
:1048D0005B8FC34013F0010FDFD0064B4FF4003263
:1048E000C3F80021D9E700BF3815002000100140AF
:1048F0003415002000E100E038B514461046194692
:1049000005F0E3FA02460D490B68E01A1B184C68E3
:1049100044F100040B604C60A2F50013B3F5400FA6
:1049200009D2074B1B68190A1B06D41841F1000570
:10493000044BC3E9004502F075FD38BD980C00201A
:104940003C150020A00C002038B50D4B1C68250A32
:104950002406BFF35F8FFFF7F3FE0346001945F10E
:104960000001B3F5801F0AD2064BD3E90023904221
:1049700071EB030303D210F1807041F1000138BDE7
:104980003C150020A00C00202DE9F04106461446FD
:104990001D469DF820801046194605F096FA0746F8
:1049A000FFF7D2FFA04271EB050319D2201A65EB85
:1049B00001011D4B984271F100012FD21B4B03EBFB
:1049C0000613D3E90223AB4208BFA24201D1002063
:1049D00018E0424639463046FFF7B8FE90B11BE07A
:1049E000B8F1000F1DD10123B340114ABFF35B8F13
:1049F00052E8000F184342E800010029F8D1BFF344
:104A00005B8F0020094B320103EB0616C6E9024515
:104A100006999950079B7360BDE8F0816FF015000F
:104A2000FAE76FF01500F7E701008000880C00201E
:104A30003415002030B585B0FFF7CCFE00231E4AA8
:104A4000C2F80835002B25DD1B4C0225C4F80453A1
:104A50001A4B4FF40032C3F88021002201211120AB
:104A600004F052FB112004F045FB0123A3602360F6
:104A7000134A1360002402940194124B0093124ACB
:104A80000023204605F031FA2846FEF789FE20462D
:104A900005B030BD0D4A02EB03124FF0FF304FF06E
:104AA000FF31C2E902014FF480329A400249C1F855
:104AB00004230133C6E700BF0010014000E100E01D
:104AC00038150020F9480000FFFF7F00880C002007
:104AD0002DE9F04782B00446FFF7AEFE10B902B0F0
:104AE000BDE8F087FFF730FF82460D4605F0F0F98C
:104AF0000646154B03EB0413D3E90289C24575EB57
:104B000009050BD20025304605F0EAF9002DE6D064
:104B1000009742464B462046A847E0E70A4A230151
:104B200002EB0411D5584F680020D0504FF0FF32EF
:104B30004FF0FF33C1E902232046FFF7F7FD20467F
:104B400005F0B7F9DFE700BF880C002010B50D4B6A
:104B5000D3F8043313F0020F03D10024002C0BDD33
:104B600010BD0221074805F05DF90028F5D0064A7E
:104B7000136801331360F0E72046FFF7A9FF013403
:104B8000ECE700BF001001403C15002010B584B0D8
:104B9000B0F1FF3F18D001281BDD154B9842A8BF8C
:104BA00018460446134B01221A70FFF7CDFE124B34
:104BB0001A685B68801AB0F5000F0CD20444B4F593
:104BC000000F09D30A4C07E00A4B00221A70084C68
:104BD000EBE70124E6E7064C002012190290019051
:104BE0000649009143F1000305F07FF904B010BDC0
:104BF000FFFF7F0082170020980C0020F94800007A
:104C000008B5FFF7A1FE024B1B68C01A08BD00BF24
:104C1000980C0020BFF34F8F0549CA6802F4E06288
:104C2000044B1343CB60BFF34F8F00BFFDE700BFC2
:104C300000ED00E00400FA05024BD3F80034002B2D
:104C4000FAD0704700E0014008B5034BC3F80405F3
:104C5000FFF7F2FF08BD00BF00E0014008B505F016
:104C600070F940B14FF080430022C3F80C21C3F823
:104C70001021C3F8382505F06EF9002846D04FF012
:104C80008052D2F804144B4BC3F82015D2F8081404
:104C9000C3F82415D2F80C14C3F82815D2F8101450
:104CA000C3F82C15D2F81414C3F83015D2F8181420
:104CB000C3F83415D2F81C14C3F84015D2F82014E8
:104CC000C3F84415D2F82414C3F84815D2F82814B0
:104CD000C3F84C15D2F82C14C3F85015D2F8301480
:104CE000C3F85415D2F83414C3F86015D2F8381448
:104CF000C3F86415D2F83C14C3F86815D2F8401410
:104D0000C3F86C15D2F84424C3F8702505F02DF9CA
:104D100018B1294B294AC3F88C2605F039F918B186
:104D2000274BFB22C3F8182505F045F970B14FF069
:104D30008041D1F8E43E23F00F034FF08052D2F8C7
:104D4000582202F00F021343C1F8E43E05F046F981
:104D500020B11C4B4FF40072C3F8402605F051F906
:104D600060B14FF08043D3F8003413F0010F05D049
:104D70004FF080436FF00102C3F8002405F05BF9A7
:104D80004FF01023D3F80C3213F0010F00D108BDFF
:104D90000120FFF759FF4FF01022D2F80C3223F018
:104DA0000103C2F80C32FFF747FF0020FFF74CFF6A
:104DB000FFF730FF00C00040005000404881030072
:104DC00000F000400090024010B50468CCB1B4FA85
:104DD00084F3C3F11F03DBB201229A4024EA0202EA
:104DE000BFF35B8F50E800CFA44504D140E8002E0C
:104DF000BEF1000FF6D1BFF35B8FE6D10B70024816
:104E000010BD0248FCE700BF0000AD0B0200AD0B77
:104E10000368CB4013F0010F15D100B502680123E0
:104E20008B401343BFF35B8F50E800CF944504D110
:104E300040E8003EBEF1000FF6D1BFF35B8FEDD12D
:104E400002485DF804FB0248704700BF0000AD0B4C
:104E50000400AD0B70B582B00646C0B1012832D156
:104E600004224FF4807301214FF08040C0F80813F2
:104E7000024401211160034400221A601B688DF86E
:104E800007108E4208D0002542F210740CE00C226C
:104E90004FF482730221E7E70DF10705F4E70120E3
:104EA00005F0D9F8013C0CD02A4631464FF080403D
:104EB00005F0D5F828B1002DF1D09DF80730012B71
:104EC000EDD0012E01D002B070BD024B00225A710C
:104ED000F9E700BF40150020064B1B793BB9054B95
:104EE000186001221A7100225A7103487047034862
:104EF000704700BF401500200000AD0B0C00AD0B4B
:104F000008B5064B1B680BB105F0C7F805F0C3F8F0
:104F10004FF08043C3F8180508BD00BF40150020BE
:104F200000B583B020B1012849D003B05DF804FB7F
:104F30004FF08043D3F81824D3F8183403F0030358
:104F4000019312F4803F13D14FF08043D3F814340F
:104F500013F0010F10D105F09EF80190019A4FF067
:104F60008043C3F8182508224FF4827302202AE0F8
:104F700001A805F09BF8F1E74FF08043D3F81C340B
:104F800003F00303019301A805F090F80028E5D091
:104F9000194B1B682BB14FF080430222C3F8042346
:104FA000C3E74FF08043D3F80431002BF9D04FF022
:104FB00080430022C3F80421D3F80431B5E700226E
:104FC0004FF48073012003F18043002119601968B8
:104FD00002F1804201211160074A126822B14FF0AC
:104FE0008043C3F80403A0E71A68002AFCD000221B
:104FF0001A601B6899E700BF4015002010B54FF0FC
:105000008043D3F8044308E01D4B5B792BB91C4B5C
:1050100001225A711A4B1B68984784B3B4FA84F082
:10502000C0F11F000122824083009BB203F5807310
:105030009BB2C0B292B224EA020403F18043196821
:105040000029EAD0002119601B684FF08043C3F8A3
:105050000823012AD8D0022ADCD14FF08043D3F8AC
:105060001814D3F8183413F0030FD3D14FF0804342
:105070000121C3F81815C3F804239960CDE710BDCA
:105080004015002070B400F01F0C400919D0012811
:105090001AD10E4D0CF5E07055F820600C4C3440E0
:1050A00041EA420141EA83039DF80C2043EA0223CE
:1050B0009DF8102043EA0243234345F8203070BC9A
:1050C00070474FF0A045E5E70025E3E700030050F7
:1050D000F0F8FCFFF0B51C46059F069E00F01F0C83
:1050E000400936D0012837D1284D0CF5E07355F82A
:1050F000233099B301209AB34FF0020E40EA0E001C
:105100008CB34FF00C0E40EA0E007FB34FF4E06E0C
:1051100040EA0E006EB34FF4403E40EA0E0023EA30
:10512000000049B30B784AB31278520013433CB3E2
:105130002278920013432FB33A78120213431EB31E
:1051400032781204134303430CF5E07C45F82C300D
:10515000F0BD4FF0A045C8E70025C6E70020CAE72C
:105160004FF0000ECAE74FF0000ECCE74FF0000EF4
:10517000CEE74FF0000ED0E70023D4E70022D5E7BA
:105180000022D7E70022D9E70022DBE70003005026
:1051900000F01F02400908D0012809D1054BD3F8BF
:1051A0001005D04000F0010070474FF0A043F6E733
:1051B0000023F4E70003005000F01F03400909D06A
:1051C00001280AD1064A03F5E07352F82300C0F320
:1051D000014070474FF0A042F5E70022F3E700BF1F
:1051E0000003005000B583B084468E460D4B93E813
:1051F000030002AB03E9030063460BE002A901EBE5
:10520000830151F8081CD1F8200542F8040BC1F8BD
:10521000200501330CEB0E009842EFD803B05DF887
:1052200004FB00BFD0B5000000F01F01400907D00B
:10523000012808D1054A01238B40C2F82035704768
:105240004FF0A042F7E70022F5E700BF000300504F
:105250004309034AD35C00F01F001844C0B27047F2
:1052600024C4000000487047000600202DE9F041EA
:1052700084B005460C4616461F460846FFF7E8FF71
:10528000804656B32146284605F008F828B1214645
:10529000284604F0C3FF002841D12146284604F0E7
:1052A000CCFF10B17378012B39D001238DF80F306A
:1052B000002301930096B31C721C0DF10F012046D0
:1052C000FFF708FF2879FFF7CDFF08F1080230F853
:1052D000123043F0030320F81230002F39D021465A
:1052E000284604F0DBFF002835D13E782B6806F510
:1052F000A272002143F822102879FFF7B3FF08F1CA
:10530000080230F8123023F02003DB04DB0C20F815
:1053100012307B782BB9114804B0BDE8F0811048F9
:10532000FAE7BA78009222463146286804F0F1FE86
:105330002879FFF797FF024608F1080032F810308D
:105340007603B6B2334343F0200322F8103003480B
:10535000E2E70248E0E70248DEE700BF0000AD0BED
:105360000400AD0B70B506460D46144604F056FF1A
:1053700068B13079FFF776FF06462846FFF768FFE9
:10538000083036F810305B0B2370024870BD0248BD
:10539000FCE700BF0000AD0B0400AD0B30B583B0DF
:1053A00005460191002400E00134012C18D80E4B71
:1053B0001B5D03F0070202A901EBD30313F8043CC1
:1053C000D34013F0010FEFD005EB840201212046FA
:1053D000FFF708FF55F82430002BE5D0012000E04E
:1053E000002003B030BD00BF34C400002DE9F041FF
:1053F00082B00546884616461F4605F0ADF8AEB3A6
:105400003A463146284604F0B7FF041E20DB2879CF
:10541000FFF728FF40F834602879FFF723FF00EBFF
:10542000C40047602879FFF71DFF05464046FFF797
:105430000FFF083035F81030E4B26402A4B2234301
:1054400043F4807325F81030094802B0BDE8F081BC
:105450002879FFF707FF0DF107017830FFF7B4FC5B
:10546000034B9842F1D19DF80740D0E70048ECE7A4
:105470000000AD0B2DE9F04385B004460D461746FC
:105480000846FFF7E5FE0646D7F80080B8F1000FA2
:1054900028D02946204604F0F0FE00284FD10023F2
:1054A0008DF80E308DF80F300193009343460DF1C7
:1054B0000F020DF10E012846FFF70CFE2079FFF7D1
:1054C000D1FE06F1080830F8183023F0020320F866
:1054D00018302079FFF7C6FE30F8183043F001038A
:1054E00020F818307B68F3B193F80080D3F804906B
:1054F0002946204604F0B2FE18B3B9F1000F65D179
:105500002079FFF7AFFE083630F8163023F01C0381
:1055100020F816302079FFF7A5FE30F8163043EA60
:10552000880320F81630BA68002A53D053681268EE
:1055300029462046FFF75AFF05B0BDE8F08326480C
:10554000FAE72079FFF78EFE06F1080230F81230F4
:1055500023F02003DB04DB0C20F81230B9F1000F3C
:10556000CED0B8F1030F33D87B685B6893F8009016
:10557000B8F1000F06D1236809F5A279002243F89B
:105580002920BDE7404604F091FE0346216809F555
:10559000A27C51F82C2022F0030241F82C202A464C
:1055A0004946206804F09CFD2079FFF75BFE06F178
:1055B000080230F812304FEA49391FFA89F943EAF4
:1055C000090343F0200320F8123099E70248B3E7BB
:1055D0000148B1E70148AFE70400AD0B0000AD0B97
:1055E00038B505460C4604F00AFE08B9074838BD30
:1055F0002146284604F08BFE2146284604F0D7FFBA
:10560000204604F0E0FD0248F1E700BF0400AD0BC6
:105610000000AD0B70B582B005460E460079FFF76D
:1056200021FE90F8803013B10B4802B070BD0446E3
:1056300060220021103005F078FD236F00930023D5
:1056400032464FF00041286804F0DBFF012384F864
:105650008030A3670148E8E70C00AD0B0000AD0BFC
:105660002DE9F04383B080460F4600230093019359
:10567000C96F6846FFF792FE4BE094FAA4F4B4FABF
:1056800084F404F01F05254B9B5D45EA431528462D
:10569000FFF7DEFD083037F81090C9F382090DEBF3
:1056A0008603E00804F007041A5C0121A14022EA05
:1056B00001021A542846FFF77FFD03464A46294651
:1056C000384604F009FF2846FFF7AEFD02AB03EBB6
:1056D000860353F8084C002CCFD10136012E0DD88B
:1056E0000F4B9B5D07F17C02D90803F00703525C66
:1056F00022FA03F313F0010FEFD0E7E73A6F4FF010
:105700000041404604F041FDF96F6846FFF746FE50
:1057100008B10026E2E703B0BDE8F08338C400001A
:1057200034C4000008B50249024804F0B5FF08BDC2
:10573000000600200060004070B400F01F0C40091B
:1057400019D001281AD10E4D0CF5E07055F82060E3
:105750000C4C344041EA420141EA83039DF80C209D
:1057600043EA02239DF8102043EA0243234345F80D
:10577000203070BC70474FF0A045E5E70025E3E717
:1057800000030050F0F8FCFF00F01F01400907D0B3
:10579000012808D1054A01238B40C2F8083570471B
:1057A0004FF0A042F7E70022F5E700BF00030050EA
:1057B00000F01F01400907D0012808D1054A012344
:1057C0008B40C2F80C3570474FF0A042F7E700223B
:1057D000F5E700BF0003005070B582B00C460379B6
:1057E000097C03EBC3021B4B03EB82039A7F61F33B
:1057F00041029A77E37E4BBB6269174B9A4227D0EE
:105800000026237E012B94BF0023012300933346FF
:1058100000220121206805F06CF800250095334630
:105820002A460121606805F064F800953346A27E9F
:105830002946A06805F05DF8237C83F001030093FE
:1058400033462A460121E06805F053F802B070BDE6
:105850000326D6E7481500200048E8011B4B994273
:105860002AD014D81A4B994228D004D9194B9942FE
:105870000BD000207047184B994221D0174B99420A
:1058800001D0002070470120704701207047144B61
:10589000994217D004D9134B99420BD0002070477E
:1058A000114B994210D0114B994201D00020704702
:1058B0000120704701207047012070470120704788
:1058C00001207047012070470120704780841E002E
:1058D00020A1070040420F0048E8010090D00300DB
:1058E0000024F4000048E80100093D0000127A009D
:1058F000224B984226D009D9214B984231D018D951
:10590000204B984236D14FF0A05070471E4B984222
:105910001BD005D91D4B984220D14FF080507047C5
:105920001B4B984214D01B4B984214D14FF080600F
:105930007047194B984217D0184B984217D14FF027
:10594000004070474FF0005070474FF000607047C4
:105950004FF0007070474FF0804070474FF080402C
:1059600070474FF0206070474FF0804070474FF015
:10597000804070474FF08040704700BF80841E0019
:105980000024F4000048E80120A1070040420F0075
:1059900048E8010090D0030000093D0000127A00A1
:1059A00008B54969FFF75AFF08B1024808BD024827
:1059B000FCE700BF0000AD0B0400AD0B2DE9F04784
:1059C0008AB005460C4690F804A04869FFF790FF9E
:1059D0008146E27EDFF88C800AEBCA0708EB870776
:1059E000BB7F62F30003BB7721462846FFF7F4FE36
:1059F000E3683B62217CBA7F61F34102BA77236896
:105A0000009363680193A3680293A37C8DF80C3024
:105A1000CDF81090237E8DF81430637E8DF815300C
:105A20004FF0FF330693079300238DF820308DF855
:105A3000213002238DF82230237F8DF824306946EF
:105A4000286804F0BBFE2B7903EBC30358F823301E
:105A500023B1286840F3073003F04CFB0AB0BDE8DF
:105A6000F08700BF4815002070B584B004460D468D
:105A70009C46136823B103F06043B3F1005F06D185
:105A800093684BB103F06043B3F1005F04D000238F
:105A90006B772F4804B070BD1CF0010F2ED001238E
:105AA000C4F850351CF0020F2CD00123C4F8403547
:105AB0000FCA04AE06E90F00C4F84405C4F848153F
:105AC000C4F83425039BC4F838350023C4F81831D2
:105AD000D4F818310723C4F800351CF0080603D1A8
